:020000040800F2
:100000007009002029020008A3270008892300089E
:10001000A12700081F040008B930000800000000F4
:10002000000000000000000000000000252A000879
:100030002D0400080000000029290008272A0008D4
:10004000430200084302000843020008430200087C
:10005000430200084302000843020008430200086C
:10006000430200084302000843020008430200085C
:10007000430200084302000843020008430200084C
:10008000430200084302000843020008430200083C
:10009000210400084302000843020008430200084C
:1000A000430200084302000843020008430200081C
:1000B000DD2A00084302000843020008430200084A
:1000C00043020008430200084302000843020008FC
:1000D000430200089530000843020008A1300008E0
:1000E00043020008430200084302000843020008DC
:1000F00043020008430200084302000843020008CC
:1001000043020008430200084302000843020008BB
:1001100043020008430200084302000843020008AB
:10012000430200084302000843020008430200089B
:10013000430200084302000843020008430200088B
:10014000430200084302000843020008430200087B
:10015000430200084302000843020008AD300008D3
:10016000430200084302000843020008430200085B
:100170004302000843020008430200080000000098
:10018000430200084302000800F002F800F03CF8C7
:100190000AA090E8000C82448344AAF10107DA45E2
:1001A00001D100F031F8AFF2090EBAE80F0013F0F8
:1001B000010F18BFFB1A43F0010318475432000027
:1001C00074320000103A24BF78C878C1FAD85207B8
:1001D00024BF30C830C144BF04680C6070470000C1
:1001E0000023002400250026103A28BF78C1FBD840
:1001F000520728BF30C148BF0B6070471FB503F0DE
:10020000EFF81FBD10B510BD00F0CFF81146FFF795
:10021000F5FF02F0E3FF00F0EDF803B4FFF7F2FFA3
:1002200003BC00F0F5F80000094880470948004782
:10023000FEE7FEE7FEE7FEE7FEE7FEE7FEE7FEE796
:10024000FEE7FEE704480549054A064B70470000F3
:10025000C12A0008890100087003002070090020ED
:10026000700500207005002053EA020C00F0698040
:100270002DE9F04B4FF00006002B1FBFB3FA83F5BA
:1002800003FA05F424FA05F65E4012BF1643B2FAEB
:1002900082F502FA05F4C5F120051EBF22FA05FC1D
:1002A00044EA0C04203556EA044C4FEA144418BFC3
:1002B000641C4FF000084FF00009904271EB030CF2
:1002C00039D3002919BFB1FA81F701FA07F6B0FA5C
:1002D00080F700FA07F6C7F120071EBF20FA07FCD7
:1002E00046EA0C062037B6FBF4FCA7EB0507103FE7
:1002F00007F01F0BCBF120060CFA0BFB2CFA06F6CD
:1003000044BFB3460026202FA4BF5E464FF0000B2B
:100310005BEA060C08BF4FF0010B19EB0B09ABFBB6
:10032000027C48EB0608C01B06FB02CC0BFB03CC8F
:1003300071EB0C01C1E70B46024641464846BDE859
:10034000F08B13B54FF000004FF00001AFF30080C9
:10035000BDE81C4070474FF0000200B513469446BC
:100360009646203922BFA0E80C50A0E80C50B1F10D
:100370002001BFF4F7AF090728BFA0E80C5048BF21
:100380000CC05DF804EB890028BF40F8042B08BFBF
:10039000704748BF20F8022B11F0804F18BF00F8BB
:1003A000012B7047704770477047754600F02CF876
:1003B000AE4605006946534620F00700854618B052
:1003C00020B5FFF73FFFBDE820404FF000064FF09B
:1003D00000074FF000084FF0000B21F00701AC467A
:1003E000ACE8C009ACE8C009ACE8C009ACE8C00999
:1003F0008D46704710B50446AFF300802046BDE837
:100400001040FFF70ABF00000048704710030020AB
:1004100001491820ABBEFEE7260002007047FEE748
:10042000014800F082B90000C8000020704772B691
:10043000FEE790F82020012A07D0022A05D0416A61
:1004400041F48021416201207047006842690A43FB
:10045000426100207047F0B590F820500468A4680D
:10046000012D05D0022D03D0416A41F480215DE0C9
:1004700014F0406F01D1E50055D5C4F30164022C9E
:1004800003D9416A41F4000150E00125A5401D60F7
:100490008D684FF4C0739DB1CE6835434E6845EA10
:1004A000C605066803EB0417F5514FF4C2750768DB
:1004B00005EB04150E697E51097D012905D009E07F
:1004C0000E88CD6845EA4655EBE701684E5946F47B
:1004D00080764E511179D579567941EA0561957941
:1004E0002D0445EA062529434FF4C676056806EB38
:1004F0000416A9511178D57841EA056195785278AA
:100500002D0445EA022211434FF4C475026805EB3D
:1005100004155151006803EB0411425842F00102E6
:1005200042500020F0BD416A41F4001141620120B7
:10053000F0BD000010B590F82020012A07D0022A53
:1005400005D0416A41F480214162012010BD3B4841
:10055000D0F8002242F00102C0F80022D0F80022B8
:1005600022F47C52C0F80022D0F800224B6A42EA02
:100570000322C0F800220A7D02F01F0301229A40E4
:10058000D0F81C329343C0F81C32CB69B3B9D0F811
:100590000C329343C0F80C328C894B6864F31F43D0
:1005A0004C6900EBC404C4F840320C890B6864F356
:1005B0001F434C6900EBC404C4F84432CB69012BDF
:1005C00016D1D0F80C321343C0F80C320C884B68AB
:1005D00064F31F434C6900EBC404C4F840320C8937
:1005E000CB6864F31F434C6900EBC404C4F8443285
:1005F0008B69002BD0F804320ED01343C0F80432BC
:100600000B69002BD0F8143208D01343C0F8143211
:10061000096A012904D008E09343EFE79343F5E723
:10062000D0F81C121143C0F81C12D0F8001221F0AF
:100630000101C0F80012002010BD0000006400405D
:10064000704730B590F82040012C05D0022C03D023
:10065000416A41F480215DE00468002955D0246995
:10066000A40754D04FF4D874056804EB01142D5935
:1006700015F00405956005682D594ED0ED085560BC
:1006800005682C5904F00204D4604FF4DA7405684C
:1006900004EB01142D5905F00F05156105682D595E
:1006A000C5F30725956105682C59240C54614FF456
:1006B000DC72046802EB0112A4581C700468A45890
:1006C000240A5C700468A458240C9C700468A25826
:1006D000120EDA704FF4DE72046802EB0112A458B5
:1006E0001C710468A458240A5C710468A458240C82
:1006F0009C710468A258120EDA71006881B1016918
:1007000041F020010161002030BDE468A8E7416AA2
:1007100041F400114162012030BD6D0D1560AFE75D
:10072000C16841F02001C160EDE72DE9F05F0546A9
:10073000006800244669D0F804908768D0F80CB0AF
:10074000D0F810A0D0F81880F10748D0F90714D0DD
:1007500001218160B80703D5284600F03CFA0CE07F
:10076000780702D54FF4006407E0380702D54FF44C
:10077000805402E0284600F02DFAF80516D52968C5
:100780004FF480708860B80503D5284600F025FA3C
:100790000CE0780502D544F4005407E0380502D592
:1007A00044F4804402E0284600F016FAF80316D517
:1007B00029684FF480308860B80303D5284600F0DC
:1007C0000EFA0CE0780302D544F4004407E0380345
:1007D00002D544F4803402E0284600F0FFF93007E7
:1007E00007D55FEACB6004D52968102044F4007473
:1007F000C86070074FF0080707D55FEA0B7004D593
:100800002868C760284600F057F9B00706D5286861
:10081000C068800702D0284600F050F9700607D55E
:100820005FEACA6004D52968102044F48064086136
:10083000B00607D55FEA0A7004D528680761284624
:1008400000F098F9F00606D528680069800702D004
:10085000284600F090F9B00308D55FEAC96005D5D5
:10086000296810204860284600F086F9F00307D573
:100870005FEA097004D528684760284600F0B0F99F
:10088000300446D55FEA497040D5F00504D55FEAEB
:10089000C87001D044F00104B00504D55FEA887047
:1008A00001D544F00204700504D55FEA487001D513
:1008B00044F00404300529D518F0700F26D008F054
:1008C0007000402815D006DC102809D020280AD056
:1008D000302816D10AE050280ED0602811D10EE041
:1008E00044F008040DE044F010040AE044F0200451
:1008F00007E044F0400404E044F0800401E044F4E4
:1009000080742868816921F0700181612968042060
:100910004860002C05D0686A204368622846FFF7CB
:100920008FFEBDE8F09F70B5040003D094F820005E
:1009300010B104E0012070BD204600F081F820686D
:10094000016841F00101016000F0B6FA0546052694
:1009500004E000F0B1FA401B0A2811D82068406872
:10096000C007F6D02068016821F00201016000F0A4
:10097000A3FA05460BE000F09FFA401B0A2806D9AF
:10098000606A40F40030606284F82060D2E720683A
:1009900040688007EFD4207E0128206801683DD0A0
:1009A00021F080010160607E01282068016838D054
:1009B00021F040010160A07E01282068016833D049
:1009C00021F020010160E07E0128206801682ED01E
:1009D00041F010010160207F01282068016829D0C2
:1009E00021F008010160607F01282068016824D09F
:1009F00021F004010160D4E902010843D4E90412A2
:100A0000114308436168491E08432168C8610020FA
:100A10006062012084F82000002070BD41F0800158
:100A2000C0E741F04001C5E741F02001CAE721F0ED
:100A30001001CFE741F00801D4E741F00401D9E704
:100A400010B586B0044614216846FFF784FC1749A8
:100A50002068884227D116480021026842F00072BF
:100A60000260006800F000700590114810380268BC
:100A700042F0080202600068022200F008000590BF
:100A80000320CDE90210CDE9000209200490694657
:100A9000084800F013F900221146142000F07AFAF9
:100AA000142000F069FA06B010BD00000064004098
:100AB00040380240000C02407047000010B58CB076
:100AC00003AB05AA0021FFF7BCFD0598A0F5007156
:100AD000013944D1234A4FF4FA64B2F9001011816C
:100AE000BDF80C0040BA1080BDF80E305BBA5380E0
:100AF000BDF810305BBA93809DF81230937141F6C7
:100B00005833194A994205DDA04203D2C1F500517C
:100B1000084409E0984206D9A14204DAC0F5005021
:100B20000844404200E0401A1060D2E90010084436
:100B30000E49506091ED000AF8EEC00A00EE100A6E
:100B40000B48B8EEC00A01F02DFE094890ED080AE6
:100B5000BDEEC00A10EE100A00B202F0BFFA0CB0EF
:100B600010BD0000EC020020340000202000002016
:100B700080000020704770477047000070B5044641
:100B800090F82000012804D0606A40F400206062E0
:100B900018E0022084F820002068016821F001019B
:100BA000016000F089F905460EE000BF00F084F90D
:100BB000401B0A2808D9606A40F4003060620520B2
:100BC00084F82000012070BD20684068C007EDD186
:100BD000606270BD704770477047704770477047DC
:100BE00070472DE9F0410446876D00F065F906462F
:100BF00094F835000025022806D08020606584F82E
:100C000034500120BDE8F0812068016821F0160110
:100C100001602068416921F080014161206C08B9C0
:100C2000A06C20B12068016821F0080101602068F3
:100C3000016821F0010101600CE000F03DF9801B2A
:100C4000052807D920206065032084F8350084F842
:100C50003450D7E720680068C007EED194F85C10E4
:100C60003F208840B860012084F8350084F8345073
:100C70000020C7E790F83510022903D08021416594
:100C800001207047052180F835100068016821F0C7
:100C9000010101600020704770B5044600F00CF9B6
:100CA0000546601C02D004480078044400F004F9B2
:100CB000401BA042FAD370BD240000202DE9F84F5C
:100CC000DFF8BCA1002201250AF1040B03264FF036
:100CD0000F090BF1040E00BF0B6805FA02F4234064
:100CE000A34270D10F7907F00307012F01D0022F23
:100CF00016D187684FEA420806FA08FC27EA0C0773
:100D0000D1F80CC00CFA08FC4CEA070CC0F808C07B
:100D10004768A7430C79C4F3001494403C434460F3
:100D20000C79E443A4070AD0C4684FEA420C06FADF
:100D30000CF7BC438F6807FA0CF72743C7600C79A0
:100D400004F00304022C12D1D40800EB840CDCF86C
:100D500020405707FF0E09FA07F824EA0804D1F8E3
:100D6000108008FA07F848EA0408CCF820800468E4
:100D70004FEA420C06FA0CF7BC430F7907F0030761
:100D800007FA0CF7274307604C6814F4403F70D013
:100D90003C4C276847F480472760246822F003070B
:100DA00004F480440094384C07EB040CDCF8084849
:100DB00097074FEA177809FA08F7BC43334FB84250
:100DC00002D1002724E054E0314FB84201D101277D
:100DD0001EE0304FB84201D1022719E02E4FB84231
:100DE00001D1032714E02D4FB84201D104270FE0B1
:100DF0002B4FB84201D105270AE02A4FB84201D152
:100E0000062705E0284FB84201D1072700E0082750
:100E100007FA08F72743CCF80878DAF80040574675
:100E2000D1F804C09C435FEACC3C00D51C433C6035
:100E3000DBF800405F46D1F804C09C435FEA8C3C7D
:100E400000D51C433C60DEF800407746D1F804C072
:100E50009C435FEACC2C00D51C433C60084F0C3708
:100E60003C68D1F804C09C435FEA8C2C00D51C433D
:100E70003C60521C102AFFF42FAFBDE8F88F000031
:100E8000003C014044380240003001400000024074
:100E90000004024000080240000C02400010024022
:100EA0000014024000180240001C02400AB1816197
:100EB00070470904FBE700000148806870470000A4
:100EC0002400002002488168027811448160704744
:100ED000240000200B4810B5016841F40071016046
:100EE000016841F480610160016841F48071016032
:100EF000032000F06FF8002000F006F800F024F85E
:100F0000002010BD003C024070B50D4D04464FF46A
:100F10007A712878B1FBF0F00A490968B1FBF0F06A
:100F200000F0A0FB48B9102C07D200222146501E29
:100F300000F030F800206C6070BD012070BD000032
:100F400024000020300000200A4808B5016841F460
:100F500080410160006800F4804000900548001F57
:100F6000016841F080510160006800F080500090FD
:100F700008BD000044380240002809DB00F01F02D1
:100F8000012191404009800000F1E020C0F80011EB
:100F900070470000F0B40E4B1B680C46C3F30223ED
:100FA000C3F10705042D00D90425191D072901D215
:100FB000002300E0DB1E012606FA05F1491E214050
:100FC00099409E40761E16403143F0BC02F075B841
:100FD0000CED00E0064900F0070208684FF6FF0339
:100FE000184040EA0220034A10430860704700009E
:100FF0000CED00E00000FA052DE9F0470E46050073
:1010000065D0DFF81481D8F80000F7B200F00700CF
:10101000B04207D288F80070D8F8000000F007004E
:10102000B04254D128683D4C810712D5400703D502
:10103000206840F4E05020602878000703D520683D
:1010400040F4604020602068A96820F0F000084368
:1010500020602878C0072DD03049686808390128F9
:1010600012D0022813D0032811D00968890700295B
:101070002DDA216821F0030101432160FFF71CFFF5
:10108000814641F2883A0EE009688903EFE7096872
:101090008901ECE7FFF710FFA0EB0901514502D9E8
:1010A0000320BDE8F0872068696800F00C00B0EB11
:1010B000810FEFD1D8F80010404601F00701B1428E
:1010C00007D90770006800F00700B04201D0012086
:1010D000E7E72878400705D52068E96820F4E05064
:1010E000084320602878000706D52068296920F485
:1010F000604040EAC100206000F038F82168084AEA
:10110000C1F30311515CC8400649086006480068F5
:10111000FFF7FAFE0020C4E7003C02400838024016
:10112000F83300083000002028000020044805495A
:1011300000680968044AC1F38221515CC8407047C5
:1011400030000020083802400834000804480549EF
:1011500000680968044AC1F34231515CC8407047D5
:10116000300000200838024008340008154810B547
:10117000006810F00C02144813D01449042A0FD050
:10118000082A0ED10F4C241F2268236802F03F0268
:101190005B0207D52068C0F38810A0FB010106E0C0
:1011A000084610BD2168C1F38811A1FB000100238E
:1011B000FFF75AF82168C1F30141491C4900B0FB0F
:1011C000F1F010BD083802400024F400001BB70005
:1011D0002DE9F84F04006ED02078DFF84C93C0075B
:1011E000A9F104054AD009F104000168C1F38101A5
:1011F000012908D00068C0F3810002280AD1D9F87B
:101200000000400206D52868800337D560680028B2
:10121000E1D033E06068B0F5803F10D0B0F5A02F8A
:10122000286810D020F480302860286820F48020BE
:1012300028606068A8B1FFF73FFE06460DE0286809
:1012400040F48030F4E740F480202860F7E700BFE6
:10125000FFF732FE801B642873D828688003F7D517
:101260000CE0FFF729FE064605E000BFFFF724FE6D
:10127000801B6428F0D828688003F7D42078DFF832
:10128000AC8280074FF0000A3ED5A748001D0168D8
:1012900011F00C0F08D00068C0F3810002280BD1B8
:1012A000D9F80000400207D42868800716D5E06806
:1012B000012800D112E033E1E068B8B10120C8F89C
:1012C0000000FFF7F9FD064605E000BFFFF7F4FD5B
:1012D000801B0228C0D828688007F7D528682169B4
:1012E00020F0F80040EAC10028600DE0C8F800A036
:1012F000FFF7E2FD064604E0FFF7DEFD801B022853
:101300001FD828688007F7D42078000722D5864F99
:1013100087486169703771B101210160FFF7CCFD29
:10132000064604E0FFF7C8FD801B022809D838688C
:101330008007F7D50EE0C0F800A0FFF7BDFD064618
:1013400005E082E0FFF7B8FD801B02287DD83868F1
:101350008007F7D42078400768D5DFF8CCB10027A4
:101360000BF13C0BDBF80000C0000BD4DBF80010E5
:1013700041F08051CBF80010DBF80000012700F0AD
:10138000805000906B4E3068C00510D4306840F437
:1013900080703060FFF790FD009005E0FFF78CFD56
:1013A0000099401A022850D83068C005F6D55E4E24
:1013B000A0686C3601280FD00528306810D020F0C6
:1013C00001003060306820F004003060A068B8B1DF
:1013D000FFF772FD00900FE0306840F00100F4E785
:1013E00040F004003060F7E7FFF766FD0099411A0E
:1013F00041F28830814266D830688007F4D50EE02B
:10140000FFF75AFD009007E0FFF756FD0099411ADB
:1014100041F28830814256D830688007F4D42FB129
:10142000DBF8001021F08051CBF80010A069C8B3A0
:101430003D49091D0968C1F3810102294AD00228EA
:10144000504607D0C8F8600000E03CE0FFF734FDEC
:1014500004463BE04746C8F86000FFF72DFD06460E
:1014600005E000BFFFF728FD801B02282BD8286865
:101470008001F7D4D4E907010843A16A2E4A49083C
:1014800002EB0141626A41EA8211084394F82C1090
:1014900040EA0161C9F8001001203866FFF70CFD31
:1014A000044606E03EE000BFFFF706FD001B0228F1
:1014B00009D828688001F7D534E000BFFFF7FCFCAD
:1014C000001B022802D90320BDE8F88F286880019C
:1014D000F4D427E00128F7D0D9F80000E26900F43D
:1014E000800191421CD1226A00F03F01914217D144
:1014F00047F6C071626A0140B1EB821F10D1A26A47
:101500004FF0FF3300F4403103EB5202B1EB024FD6
:1015100006D194F82C1000F07060B0EB016F01D090
:101520000120D1E70020CFE7043802400000474205
:10153000800E4742007000400000FFFF70B50400BD
:1015400009D0606A002540B125616561A56294F803
:10155000510040B10CE0012070BD6068B0F5827FA1
:10156000F4D0E561F2E784F85050204600F044F8EA
:10157000022084F851002068016821F040010160D8
:10158000A088218900F4827001F404410843A189F4
:1015900001F400610843217C01F002010843217D30
:1015A00001F001010843218B01F400710843217F00
:1015B00001F03801084394F8201001F0800108433D
:1015C000218D01F40051084321680860A0690421BD
:1015D00001EA104094F8241001F01001084321683A
:1015E00048602068C16921F40061C161656501201E
:1015F00084F85100002070BD10B586B00446142157
:101600006846FEF7A8FE14492068884221D1134895
:10161000016841F480410160006800F48040059059
:101620000E481038016841F0020101600068694607
:1016300000F0020005904FF46040009002200190FD
:101640000120029003200390052004900448FFF736
:1016500035FB06B010BD00000038004040380240A5
:101660000004024010B5401EB0F1807F01D301207C
:1016700010BD4FF0E02460610F21601701F01DFDE7
:101680000020A06107202061002010BD7047704736
:1016900010B590F83C20012A22D0012280F83C208D
:1016A000CA688C6822F4407222434C6822F480623B
:1016B00022430C6822F4006222430C6922F4805217
:1016C00022434C6922F400522243C969002322F4C8
:1016D00080420A4301684A6480F83C30002010BD13
:1016E000022010BD70B590F83C20012A32D00124B0
:1016F00080F83C40022280F83D2003685A689D68CB
:1017000022F070060A6832435A60134B02689A420C
:1017100014D0B2F1804F11D0104B9A420ED0104B22
:101720009A420BD00F4B9A4208D00F4B9A4205D0E9
:101730000E4B9A4202D00E4B9A4204D1496825F0D2
:1017400080031943916080F83D40002180F83C10EF
:10175000084670BD022070BD00000140000400403A
:1017600000080040000C004000040140004001401F
:101770000018004010B5040003D094F83D0010B1EB
:1017800007E0012010BD002084F83C00204600F056
:101790001FF8022084F83D00211D206801F0A4F903
:1017A000012084F8460084F83E0084F83F0084F865
:1017B000400084F8410084F8420084F8430084F833
:1017C000440084F8450084F83D00002010BD00006E
:1017D00008B501681748814208D11748016841F0EF
:1017E00001010160006800F001000EE01248001FD6
:1017F000B1F1804F0BD0114A914207D1016841F0FD
:1018000002010160006800F00200009008BD01685C
:1018100041F0010101600068002200F00100009029
:1018200011461C20FFF7B6FBBDE808401C20FFF75F
:10183000A3BB000000000140443802400004004007
:1018400090F83D10012901D001207047022180F855
:101850003D100168CA6842F00102CA60006811497F
:10186000884214D0B0F1804F11D00F4988420ED079
:101870000E4988420BD00E49884208D00D49884253
:1018800005D00D49884202D00C49884204D18168B4
:1018900001F00701062903D0016841F00101016050
:1018A0000020704700000140000400400008004094
:1018B000000C0040000401400040014000180040BE
:1018C00070B5044690F83C000025012817D0012689
:1018D00084F83C60022084F83D002068826822F091
:1018E000770222F47F4282600868502838D00DDCED
:1018F00020284FD005DC90B3102811D14AE00220F7
:1019000070BD302846D040280AD13BE060282FD057
:1019100070280DD0B0F5805F03D0B0F5005F12D015
:10192000012584F83D60002084F83C00284670BD05
:10193000CB68D1E90121206801F047F9206881686E
:1019400041F0770109E0CB68D1E90121206801F07D
:101950003CF92068816841F480418160E1E719E049
:10196000CA684968206801F005FA5021206806E03D
:10197000CA684968206801F00EFA6021206801F009
:101980002EF9CEE7CA684968206801F0F3F94021D2
:101990002068F4E7226801461046F0E7704770B50A
:1019A0000446006801694FF00005C943890715D452
:1019B000C168C943890711D4E91E0161012020775C
:1019C000206880698007204602D0FFF7E7FF04E027
:1019D00000F0DAF8204600F06CF9257720680169FC
:1019E000C943490717D4C168C943490713D46FF0E5
:1019F00004010161022020772068806910F4407F93
:101A0000204602D0FFF7CAFF04E000F0BDF82046F0
:101A100000F04FF9257720680169C943090716D4FA
:101A2000C168C943090712D46FF00801016104209D
:101A300020772068C0698007204602D0FFF7AEFFFC
:101A400004E000F0A1F8204600F033F92577206883
:101A50000169C943C90617D4C168C943C90613D46B
:101A60006FF010010161082020772068C06910F430
:101A7000407F204602D0FFF791FF04E000F084F899
:101A8000204600F016F9257720680169C943C90787
:101A900008D1C168C943C90704D1891E0161204624
:101AA00000F06CF920680169C943090609D4C168CE
:101AB000C943090605D46FF0800101612046FFF794
:101AC000E5FD20680169C943490609D4C168C943D5
:101AD000490605D46FF040010161204600F08CF901
:101AE00020680169C94389060BD4C168C9438906C6
:101AF00007D46FF0200101612046BDE87040FFF778
:101B0000C6BD70BD10B586B0044614216846FEF708
:101B100022FC2368174C002117480222A34212D14D
:101B2000036843F010030360006800F010000590A4
:101B30004FF428500090CDE901210120CDE9031098
:101B400069460E4812E00E4CA34211D1036843F0DF
:101B500004030360006800F004000590A0150090E5
:101B6000CDE90121CDE9031269460648FFF7A6F841
:101B700006B010BD000001403038024000100240A5
:101B80000004004000080240704770B5044690F819
:101B90003C0000260D4601280FD0012084F83C00AF
:101BA0006AB1042A1DD0082A2FD00C2A3FD0012662
:101BB000002084F83C00304670BD022070BD2068D3
:101BC00001F016F82068816941F008018161206800
:101BD000816921F004018161206881692A691143CA
:101BE00011E0206801F034F82068816941F4006157
:101BF00081612068816921F4806181612068816947
:101C00002A6941EA02218161D2E7206801F056F891
:101C10002068C16941F00801C1612068C16921F0F3
:101C20000401C1612068C1692A69114311E020687B
:101C300001F078F82068C16941F40061C161206851
:101C4000C16921F48061C1612068C1692A6941EAE2
:101C50000221C161ACE710B5040003D094F83D0047
:101C600010B107E0012010BD002084F83C002046A0
:101C700000F01EF8022084F83D00211D206800F0CD
:101C800033FF012084F8460084F83E0084F83F00CA
:101C900084F8400084F8410084F8420084F843004E
:101CA00084F8440084F8450084F83D00002010BD0D
:101CB0007047704710B50446022249B104290ED07E
:101CC000082913D094F84100012816D0012010BD36
:101CD00094F83E000128F9D184F83E200FE094F8F2
:101CE0003F000128F2D184F83F2008E094F840003A
:101CF0000128EBD184F8402001E084F84120012242
:101D0000206800F055FF16492068164A884201D025
:101D1000904203D1436C43F40043436420688842FB
:101D200013D0B0F1804F10D00F4988420DD00F4929
:101D300088420AD00E49884207D0904205D00D490A
:101D4000884202D00C49884204D1816801F0070121
:101D5000062903D0016841F001010160002010BD97
:101D60000000014000040140000400400008004061
:101D7000000C004000400140001800402DE9F041F7
:101D80001A4988421DD11A4D4FF48051194C2878B8
:101D90004E108F10B8B101284FF00102204618D024
:101DA000FFF784F8012231462046FFF77FF8002232
:101DB00039462046FFF77AF8002028702878401C22
:101DC0002870BDE8F08100222046FFF76FF801225D
:101DD00002E0FFF76BF8002231462046FFF766F875
:101DE000012239462046FFF761F8E7E7900100201D
:101DF00000000020001C0240704770477047000040
:101E0000F8B5016804460868CA684B6910F00F0FFE
:101E10004FF0000559D003F0010602F490773743E4
:101E200065D0C10705D0D10503D5216C41F0010172
:101E30002164410705D5D90703D0216C41F0020187
:101E40002164810705D5D90703D0216C41F0040135
:101E50002164010707D502F02001314303D0216C32
:101E600041F008012164216C00293AD0800604D594
:101E7000900602D5204600F0CFFF20684069216C13
:101E8000C0F38010090700D460B3204600F09DFF26
:101E900020684069400621D52068143050E8001FB2
:101EA00021F0400140E80012002AF5D1A06BA8B152
:101EB0006C490165A06BFEF7DDFE002811D0A06B18
:101EC000016D01B0BDE8F040084783060FD59306C9
:101ED0000DD52046BDE8F84000F09EBF2046FFF734
:101EE0008DFFF8BD2046FFF789FF2564F8BD266BFE
:101EF0002023012E79D1C60677D5D60675D5086878
:101F0000486800904869400640D5A16B0868406861
:101F10000004000CEAD0A28D8242E7D9E085C869AE
:101F2000B0F5807F2DD020680C3050E8001F21F4E0
:101F3000807140E80012002AF5D12068143050E882
:101F4000001F21F0010140E80012002AF5D12068AD
:101F5000143050E8001F21F0400140E80012002A30
:101F6000F5D184F83E30256320680C3050E8001F1E
:101F700021F0100140E80012002AF5D1A06BFEF715
:101F800030FEA08DE18D401A81B229E0A08DE18D57
:101F9000401A81B2E08D0028A8D00029A6D0206880
:101FA0000C3050E8002F22F4907240E80026002EFA
:101FB000F5D12068143050E8002F22F0010240E8EB
:101FC0000026002EF5D184F83E30256320680C30C1
:101FD00050E8002F22F0100240E80023002BF5D13A
:101FE0002046FFF70AFFF8BDFFE705062BD51506CB
:101FF00029D594F83D002128F5D1A068B0F5805F7F
:1020000001D12069B0B1206A411C216221680078A9
:102010004860E08C401E0004000CE084E3D120689E
:10202000C16821F08001C1602068C16841F04001B1
:10203000C160D8E7206A0088C0F308004860206AC1
:10204000801C2062E5E74006CDD55006CBD5CA6896
:10205000204622F04002CA6084F83D3000F093F937
:10206000C1E70000BB2D000870B5040004D094F84F
:102070003D00002510B106E0012070BD84F83C5001
:10208000204600F023F8242084F83D002068C16831
:1020900021F40051C160204600F01EFF2068016954
:1020A00021F4904101612068416921F02A014161D8
:1020B0002068C16841F40051C1602564202084F883
:1020C0003D0084F83E00002070BD0000F0B587B0F0
:1020D000044614216846FEF73EF94848464B2268FC
:1020E0000024464914380225032607279A4232D194
:1020F0000A6842F010020A60096801F010010591B7
:10210000016841F002010160016801F002010591DE
:10211000016841F001010160006802AA00F00100BD
:1021200005908020CDE9000582E8D000694634485A
:10213000FEF7C4FD2802CDE9000502AA694682E83F
:10214000D0003048FEF7BAFD002211462520FEF7E8
:1021500021FF252025E02C4B9A4226D12749091F33
:102160000A6842F480220A60096801F4802105911E
:10217000016841F004010160006802AA00F0040057
:1021800005904FF44060CDE9000582E8D000694633
:102190001E48FEF793FD002211462720FEF7FAFEA7
:1021A0002720FEF7E9FE07B0F0BD194B9A42FAD19D
:1021B0000A6842F020020A60096801F020010591D6
:1021C000016841F0400101600068029400F04000A5
:1021D00005904FF48440CDE900050820CDE9036067
:1021E00069460C48FEF76AFD002211464720FEF7BB
:1021F000D1FE4720D5E700000010014044380240DE
:102200000004024000000240004800400008024074
:10221000001401400018024090F83E30202B0ED1EF
:1022200059B152B190F83C30012B08D0012380F80D
:102230003C300023036300F0D5BE0120704702202C
:102240007047000070B505461D481E4C85420BD1F5
:10225000A01C0078522801D10120A0611949012257
:10226000891C1748FFF7D8FF1748854204D1154944
:1022700003221031FFF7D0FF144885421ED11148C8
:102280006269401C0021002A027802D00F2A02D085
:1022900002E00F2A0AD161610D4B60691A54401C9B
:1022A0006061152802D1616100F040FBBDE870401B
:1022B00004490122491C0548FFF7AEBF70BD00006C
:1022C0002002002000000020A8020020640200205C
:1022D000440000202DE9F843044690F83D001F46D5
:1022E00016460D4620284CD1C5B1BEB194F83C002D
:1022F000012846D0012084F83C004FF00008C4F8C3
:102300004080212084F83D00FEF7D6FDA68481465A
:10231000E684A068B0F5805F03D004E00120BDE84A
:10232000F883206928B12E465FF0000584F83C80D0
:102330000EE00026FAE78021204600F06EFEA0B9EC
:10234000AEB116F8010B21684860E08C401EE084B5
:10235000E08C4B464FF0000200970028EBD14FF085
:102360004001204600F059FE30B10320D7E735F890
:10237000020BC0F30800E6E7202084F83D000020AF
:10238000CDE70220CBE77047FEE700000F4810B50D
:102390000D4901600321416000214FF4102281604A
:1023A000C0E903124FF40012426101764176817652
:1023B000C17601774177FEF7B6FA002803D0BDE871
:1023C0001040FEF734B810BD00640040C800002083
:1023D0002DE9F04186B014216846FDF7BCFF2F4877
:1023E0000025016841F040010160016801F04001F1
:1023F0000591016841F001010160016801F00101EE
:102400000591016841F002010160016801F00201DB
:102410000591016841F008010160016801F00801BF
:102420000591016841F004010160016801F00401B7
:102430000591016841F080010160016801F08001AF
:102440000591016841F0100101600068144F00F02F
:1024500010004FF4E0540590002221463846FEF764
:1024600025FD0122DFF83C80160331464046FEF789
:102470001DFD00940124CDE90145694638460395C8
:10248000FEF71CFC0220CDE90240CDE9006469465C
:102490004046FEF713FC06B0BDE8F081303802403C
:1024A000001C02400004024010B501221103104834
:1024B000FEF7FCFC10480F494FF4007201604FF426
:1024C0008271416000218160C1600161C0E9051233
:1024D0003022C0E90721416281620A21C162FFF70F
:1024E0002DF8002803D0BDE81040FDF7A0BF10BDB7
:1024F0000004024000380040F000002010B596B003
:1025000000240F9410941194129413941C21684683
:102510001494FDF720FF202107A8FDF71CFF314888
:102520002F49016040F24731C0E9011440F69F7124
:10253000C0E903148021C0E90541FFF71BF908B188
:10254000FDF775FF4FF480500F900FA92548FFF756
:10255000B7F908B1FDF76BFF2248FFF77CFB08B124
:10256000FDF765FF139413A91E481494FFF7BAF8FA
:1025700008B1FDF75CFF6020CDE9000402940394EC
:10258000049405940022694616480694FFF7FDFA64
:1025900008B1FDF74CFF042269461248FFF7F5FA2F
:1025A00008B1FDF744FF082269460E48FFF7EDFA2F
:1025B00008B1FDF73CFF0794089409944FF40050CC
:1025C0000A94CDE90B4007A906480E94FFF760F87E
:1025D00008B1FDF72CFF0348FFF794FA16B010BDC1
:1025E000000001404801002010B586B000241648C4
:1025F000009401940294039404944FF08041059454
:10260000C0E900141149C0E90241802104618161DF
:10261000FFF7B0F808B1FDF70AFF4FF480500090C3
:1026200069460948FFF74CF908B1FDF700FF04942B
:1026300004A905480594FFF755F8002801D0FDF7D7
:10264000F6FE06B010BD000090010020FF79030ADD
:1026500010B58EB000240794089409940A940B9442
:102660001C2168460C94FDF776FE1F481D49016049
:1026700040F2E731C0E90114A721C0E90314802129
:102680008161FFF777F808B1FDF7D1FE4FF4805074
:10269000079007A91448FFF713F908B1FDF7C7FE23
:1026A0001148FFF7D8FA08B1FDF7C1FE0B940BA94A
:1026B0000D480C94FFF716F808B1FDF7B8FE60203E
:1026C000CDE9000402940822694607480494FFF704
:1026D0005CFA08B1FDF7ABFE0348FFF713FA0EB042
:1026E00010BD000000040040D80100200C4810B5C7
:1026F0000A4901604FF4E1314160002181600C2200
:10270000C160C0E904128161C161FFF7ADFC00281E
:1027100003D0BDE81040FDF78ABE10BD0010014097
:10272000200200200E4810B50C4901600D4941609F
:102730004FF4805181604900C160C91001610C21D2
:10274000416100218161C161FFF78EFC002803D047
:10275000BDE81040FDF76BBE10BD00000048004012
:1027600064020020A08601000C4810B50A490160EF
:102770004FF4E1314160002181600C22C160C0E969
:1027800004128161C161FFF76FFC002803D0BDE82E
:102790001040FDF74CBE10BD00140140A8020020FF
:1027A000FEE7FEE7A0B1D0ED101AC0ED111A90EDD2
:1027B0000F1A80ED101AC0ED060A80ED070A30EE00
:1027C000C00A80ED0F0A017829B101293BD078E0D9
:1027D0009FED3D0A7047D0ED010A60EE801AC0ED12
:1027E000091AD0ED0A0A90ED022A42EE000A30EEF4
:1027F000410AC0ED0A0A90ED0D2A80ED0E2A90EDF7
:102800000C2A80ED0D2A80ED0C0A90ED031A21EEC2
:10281000001A80ED0B1A90ED050AF4EEC00AF1EEF5
:1028200010FA09DCB1EE400AF4EEC00AF1EE10FA3B
:1028300002D390ED0A0A01E080ED0A0A31EE800A27
:1028400030EE010A2BE070EE410A90ED012A20EEF5
:10285000822A80ED092AD0ED020A60EE800AC0EDDE
:102860000A0AD0ED0D2A72EE200AC0ED0E2AD0ED34
:102870000C2AC0ED0D2AF0EE002A01EE620A30EEBD
:10288000210A80ED0C0A90ED031A21EE000A80ED7A
:102890000B0A30EE800AD0ED080A30EE200A80EDF7
:1028A000080AD0ED040AB4EEE00AF1EE10FA06DCF4
:1028B000F1EE600AB4EEE00AF1EE10FA01D2C0EDDA
:1028C000080A90ED080A704700000000002828D090
:1028D000002A26D0017092ED001A80ED011A92EDC7
:1028E000011A80ED021A92ED021A80ED031A80EDB2
:1028F000040A9FED0C0AC0ED050A80ED0E0A80ED7A
:102900000D0A80ED0C0A80ED080A80ED0B0A80EDBF
:102910000A0A80ED090A80ED110A80ED100A80EDA7
:102920000F0A704700000000704700003C48B0F8F4
:102930000110C1F30A0200F11A010A808278D3085B
:10294000C27843EA4213C3F30A034B800379920926
:1029500042EA8303427943EA8223C3F30A038B806A
:102960005308827943EAC213C3F30A03CB801309E5
:10297000C27943EA0213C3F30A030B81037AD20933
:1029800042EA4303427A43EA4223C3F30A034B81F8
:102990009308827A43EA8213C3F30A038B81C37AD2
:1029A000520942EAC302CA818289C2F30A020A8238
:1029B000427BD308827B43EA4213C3F30A034B8270
:1029C000C37B920942EA8303027C43EA8223C3F376
:1029D0000A038B825308427C43EAC213C3F30A03FF
:1029E000CB821309827C43EA0213C3F30A030B83ED
:1029F000C37CD20942EA4303027D43EA4223C3F384
:102A00000A034B839308427D43EA8213C3F30A030C
:102A10008B83807D520942EAC000C8837047000062
:102A2000440000207047FEF74DBA000030B593B067
:102A300030216846FDF78FFC14210CA8FDF78BFCB4
:102A40001D480025016841F080510160006800F0D8
:102A5000805011901948016841F48041016000687C
:102A6000022400F4804011900120009000040190A5
:102A70008001CDE9064006200890A820CDE9090490
:102A800004200B906846FEF7A3FB08B172B6FEE780
:102A90000CA90F2081E831004FF4A0500F904FF4A3
:102AA0008050109005210CA8FEF7A6FA002801D04E
:102AB00072B6FEE713B030BD4038024000700040EF
:102AC0000548016841F47001016003494FF000605E
:102AD000803908607047000088ED00E00148FEF78B
:102AE0005EBF000090010020F0B50268254C264D25
:102AF000264E274F274B4FF0804CA04209D060450F
:102B000007D0A84205D0B04203D0B84201D09842C5
:102B100004D122F0700E4A6842EA0E02A0421BD095
:102B2000604519D0A84217D0B04215D0B84213D092
:102B3000984211D0184DA8420ED0184DA8420BD083
:102B4000174DA84208D0174DA84205D0164DA842EF
:102B500002D0164DA84203D122F44075CA682A4318
:102B60004D6922F080022A4302608A68C2620A68C4
:102B70008262A04201D0984201D10969016301211A
:102B80004161F0BD00000140000400400008004029
:102B9000000C00400004014000400140004401409E
:102BA0000048014000180040001C00400020004088
:102BB00010B501F01F030121046A99408C4304629F
:102BC000016A9A401143016210BD10B5846842EA5F
:102BD000032224F47F440A432243826010BD8268AA
:102BE00022F070020A4342F0070181607047000042
:102BF000F0B5026A22F001020262036A4268846947
:102C0000124E24F073050C682C4323F002058B68E8
:102C10002B430D4DA84201D0B04205D123F0080747
:102C2000CB683B4323F00403A84201D0B04205D156
:102C30004D6922F4407215438A692A4342608461D7
:102C4000496841630362F0BD000001400004014097
:102C5000F0B5026A22F010020262026A43688469D7
:102C60000D6824F4E64444EA05248D6822F020022D
:102C700042EA05120F4D104EA84201D0B04206D1D3
:102C8000CF6822F0800242EA071222F04002A842F6
:102C900001D0B04207D14D6923F4406343EA850374
:102CA0008D6943EA850343608461496881630262F8
:102CB000F0BD00000000014000040140F0B5026AD0
:102CC00022F480720262026A4368C46922F40072CC
:102CD00024F073050C68124E2C438D6842EA0522DD
:102CE0000E4DA84201D0B04206D1CF6822F4006256
:102CF00042EA072222F48062A84201D0B04207D102
:102D00004D6923F4405343EA05138D6943EA0513E3
:102D10004360C4614968C1630262F0BD00000140C4
:102D20000004014030B5026A22F480520262046A53
:102D30004268C3690D6823F4E64343EA05238D68BE
:102D400024F4005444EA0534084DA84202D0084D4A
:102D5000A84204D14D6922F4804242EA85124260C1
:102D6000C36149680164046230BD00000000014095
:102D70000004014010B5036A046A24F001040462EF
:102D8000846924F0F00444EA021423F00A020A439E
:102D90008461026210BD10B5036A23F01003036260
:102DA0008369046A23F4704343EA023224F0A003E7
:102DB00043EA01118261016210BD10B5806B0021F0
:102DC000C185C184FFF71AF810BD01680C3151E8C4
:102DD000002F22F4907241E80023002BF5D1016806
:102DE000143151E8002F22F0010241E80023002BAA
:102DF000F5D1016B012909D101680C3151E8002F8F
:102E000022F0100241E80023002BF5D1202180F8A8
:102E10003E1000210163704708B590F83E1022294A
:102E200001D0022008BD82684FF480539A4201D13C
:102E3000016921B1816A9A421BD04AB10AE0026855
:102E4000816A5268C2F308020A80816A891C08E01C
:102E5000026972B10268526802F07F020A70816AE8
:102E6000491C8162C18D491E0904090CC18503D02A
:102E700019E002685268F1E70168CA6822F020028E
:102E8000CA600168CA6822F48072CA6001684A692F
:102E900022F001024A61202180F83E10016B0129D5
:102EA00003D0FFF7CFF9002008BD002101630168BE
:102EB0000C3151E8002F22F0100241E80023002BD2
:102EC000F5D101680A68D20602D50A6849680091FE
:102ED000818DFEF792FFE6E770B504460068016950
:102EE000E26821F44051114301612169A068E2695F
:102EF00008436169114308432168CA6849F20C63B9
:102F00009A430243CA6020684169A26921F4407172
:102F10001143416131492068884202D030498842DA
:102F200002D1FEF713F901E0FEF700F9E269002390
:102F3000192164253226B2F5004F626828D0A0FB23
:102F40000101930F9200FDF78FF90146B0FBF5F0F8
:102F50006FF01802504301EB800006EB0010B0FB4D
:102F6000F5F000F0F002B1FBF5F002EB0012B1FB5E
:102F7000F5F06FF01803584301EB800006EB0010EA
:102F8000B0FBF5F000F00F0021681044886070BDC0
:102F9000A0FB010192185B41FDF766F90146B0FB09
:102FA000F5F00201B1FBF5F06FF01803584301EBA7
:102FB000800006EBC000B0FBF5F000F0F80002EB7B
:102FC0004002B1FBF5F0584301EB800006EBC00076
:102FD000B0FBF5F000F00700D6E70000001001405C
:102FE0000014014081628285C28500210164222291
:102FF00080F83E2080F83C100168CA6842F4807274
:10300000CA6001684A6942F001024A610068C16809
:1030100041F02001C160002070472DE9F041984641
:1030200017460E460446069D27E0681C25D02DB1A4
:10303000FDF742FFA0EB0800A8421ED920680C3023
:1030400050E8001F21F4D07140E80012002AF5D1A9
:103050002068143050E8001F21F0010140E8001200
:10306000002AF5D1202084F83D0084F83E0000209D
:1030700084F83C000320BDE8F0812068006836EA4F
:10308000000004D00020B842CFD00020F3E7012098
:10309000F9E700000148FEF7B3BE0000200200205F
:1030A0000148FEF7ADBE0000640200200148FEF7B3
:1030B000A7BE0000A8020020FEE70907090E0028AD
:1030C00004DB00F1E02080F80014704700F00F00EE
:1030D00000F1E02080F8141D7047000008B50C4A8C
:1030E0004FF400710823116000219160C2E90313BD
:1030F000084A030A137050709170D17011715171A8
:103100009171D1716B4602490348FDF7A4F908BDDE
:10311000F80200203C000020C800002000B58BB061
:1031200000200121CDE90601089100900190029054
:1031300003900590049069460548FDF7FBF90448A3
:10314000FDF71CFD02210248FDF773F90BB000BD2D
:10315000C800002070B5204C4FF482702168C8630D
:103160004FF496752846FDF797FD2168D2204863F5
:103170006420FDF791FD2168822088634FF4C870B8
:10318000FDF78AFD2068E726C663C820FDF784FDA9
:103190002168642088632846FDF77EFD21684FF48E
:1031A000E670C8634FF4FA70FDF776FD2168E620FB
:1031B00048632168C82088636420FDF76DFD20689E
:1031C00045634FF47A70FDF767FD2068C663216898
:1031D0004FF4D770486370BD480100200EB5FDF76D
:1031E00079FEFFF723FCFFF7F3F8FFF787F9FFF706
:1031F0007DFAFFF7B9FAFFF7F7F9FFF7C7F8FFF71E
:1032000053F9FFF725FAFFF78DFA5B4907C98DE8F7
:103210000700FFF783FFDFED590A9FED590A6A4661
:1032200000215848FFF752FB5748FEF709FB0021E1
:103230005648FEF73FFD04215448FEF73BFD0821A8
:103240005248FEF737FD08215148FEF733FD4F4C39
:103250004FF4E1712068416321688C208863206805
:10326000AF21C1634A4914200968C8630122494952
:103270004948FEF7D1FF474903220E314748FEF780
:10328000CBFF44490122491E4548FEF7C5FFDFF840
:1032900004A13C4D0AF1010AA04600270AF10D09DC
:1032A000223DA9F110044FF47A76D8F80020A188C5
:1032B0005163D8F80020E1889163D8F80000218993
:1032C000C163E069012801D1FFF744FFE761288964
:1032D000B04208D9FFF73EFF02E00120FDF7DCFC19
:1032E0002889B042F9D8A8880146A0F51670B042E6
:1032F00003D800EB8000800108E0B1F5167F01D211
:10330000276204E0B1F5C86F01D9264820629AF817
:10331000001099F80120914207D01E49334601223E
:10332000491C1E48FEF7D6FF21E0012902D00229E0
:1033300009D01CE099F80200012801D0022816D11A
:1033400000F032F813E099F80200012804D00228B6
:103350000DD0032803D00AE0FFF7FCFE07E0A069C8
:10336000012801D1FFF7F6FE3046FDF795FC4FF43A
:10337000FA70FDF791FC98E7EC33000800009643E3
:1033800000803B4580000020900100204801002083
:10339000D80100200200002020020020A802002006
:1033A0006402002000E2040070B50A480A4C0B4A8F
:1033B0004FF47A7190FBF1F325686B63401E9042E5
:1033C000F8DA9620FDF768FC21684FF4E170486355
:1033D00070BD0000D0DD060048010020D06C040064
:1033E0004FF04070E1EE100A704700000AD7A33C8E
:1033F000CDCCCC3D000040400000000000000000AB
:10340000010203040607080900000000010203048A
:10341000303400080000002044000000C40100080F
:1034200074340008440000202C090000E00100086A
:1034300000000000000000000000AA11AA00000027
:10344000000000000000000000000000000000007C
:10345000000000000100000010000000000000005B
:103460000024F40000000000000000000000000044
:043470000000000058
:040000050800018965
:00000001FF
